:10000000001000100D0100008501000085010000B6
:1000100000000000000000000000000000000000E0
:10002000000000000000000000000000850100004A
:1000300000000000000000008501000085010000B4
:100040008501000085010000850100008501000098
:100050008501000085010000850100008501000088
:100060008501000085010000850100008501000078
:100070008501000085010000850100008501000068
:100080008501000085010000850100008501000058
:100090008501000085010000850100008501000048
:1000A0008501000085010000850100008501000038
:1000B0008501000085010000850100008501000028
:1000C00080B500AF0B4B00221A600B4B80221A60E8
:1000D0000A4B0A4A126880218A431A60084B01229F
:1000E0001A60084B03221A60074B01221A60BD46B2
:1000F00080BDC046408004400880044038820440EF
:1001000044800440708004407480044080B584B012
:1001100000AF174BFB60174BBB60174A154BD31A48
:100120007B6007E0BB685A1CBA60FA68511CF96032
:1001300012781A707B685A1E7A60002BF2D10F4B2E
:10014000BB600F4A0D4BD31A7B6004E0BB685A1C9E
:10015000BA6000221A707B685A1E7A60002BF5D1B3
:10016000FFF7AEFF00F058F8BD4604B080BDC046B2
:100170001803000000000010000000100000001034
:100180000000001080B500AFFEE7C04680B582B029
:1001900000AF7860C0467B685A1E7A60002BFAD1A7
:1001A000BD4602B080BDC04680B500AF134B134AB8
:1001B000126813490A431A60124B00221A60124B4C
:1001C000114A1268C02149000A431A600F4B0F4AB6
:1001D0001268902149000A431A600D4B0C4A1268BC
:1001E000C02149000A431A600A4B0A4A126890214A
:1001F00049000A431A60BD4680BDC0468080044065
:100200004000010014400440008000500080015074
:10021000FC3F0050FC3F015080B500AFFFF7C4FF2A
:10022000394B394A1268802149000A431A60364B1B
:10023000354A126880218A431A60344B334A116868
:10024000334A0A401A60314B304A126820218A43EF
:100250001A60304B181CFFF799FF2B4B2A4A116884
:100260002B4A0A401A60284B274A126880210A4309
:100270001A60264B254A1168254A0A401A60234B0A
:10028000224A126820218A431A60224B181CFFF769
:100290007DFF1D4B1C4A11681D4A0A401A601A4B0B
:1002A000194A126880218A431A60184B174A12684B
:1002B000802149000A431A60144B144A1268202115
:1002C0008A431A60134B181CFFF760FF0E4B0E4A4F
:1002D00011680F4A0A401A600B4B0B4A12688021C2
:1002E0008A431A60094B094A1168094A0A401A6090
:1002F000064B064A126820210A431A60054B181C57
:10030000FFF744FF8CE7C046FC3F0050FC3F015024
:08031000FFFEFFFF40420F0059
:00000001FF
