:1000000000100010110100008901000089010000AA
:1000100000000000000000000000000000000000E0
:100020000000000000000000000000008901000046
:10003000000000000000000089010000E101000054
:100040008901000089010000890100008901000088
:100050008901000089010000890100008901000078
:100060008901000089010000890100008901000068
:100070008901000089010000890100008901000058
:100080008901000089010000890100008901000048
:100090008901000089010000890100008901000038
:1000A0008901000089010000890100008901000028
:1000B0008901000089010000890100008901000018
:1000C00080B500AF0E4B0C221A600E4B00221A6056
:1000D0000C4B01221A600C4B03221A600B4B0C22B2
:1000E0001A60084B00221A60064B01221A60C046B3
:1000F000044B1A6801231340FAD0BD4680BDC046A8
:1001000078800440E4800440E0800440E8800440BB
:1001100080B584B000AF174BFB60174BBB60174A2C
:10012000154BD31A7B6007E0BB685A1CBA60FA68AB
:10013000511CF96012781A707B685A1E7A60002B85
:10014000F2D10F4BBB600F4A0D4BD31A7B6004E01A
:10015000BB685A1CBA6000221A707B685A1E7A600B
:10016000002BF5D1FFF7ACFF00F0F2F8BD4604B06C
:1001700080BDC0462C0400000000001002000010EA
:10018000020000100200001080B500AFFEE7C0467C
:1001900080B582B000AF7860C0467B685A1E7A6036
:1001A000002BFAD1BD4602B080BDC04680B500AF7D
:1001B000074B074A126807210A431A60054B064A93
:1001C0001A60064B01221A6062B6BD4680BDC04669
:1001D00010E000E014E000E03F420F0018E000E013
:1001E00080B500AF3F4B3F4A1268802189000A4327
:1001F0001A603D4B1B881BB2022B16D002DC012B70
:1002000005D052E0032B1DD0042B35D04DE0354BEB
:10021000344A1268802149000A431A60314B314A3E
:10022000126880218A431A603FE02E4B2D4A1168E4
:100230002E4A0A401A602B4B2A4A126880210A4330
:100240001A6032E0274B274A1168284A0A401A6090
:10025000244B244A126880218A431A60244B244A82
:100260001268802149000A431A60214B204A126813
:1002700020218A431A6018E01A4B1A4A11681B4A57
:100280000A401A60174B174A126880218A431A6085
:10029000174B174A1168154A0A401A60144B144A42
:1002A000126820210A431A60C0460F4B1B889BB27C
:1002B00001339AB20C4B1A800B4B1B881BB2022BDA
:1002C00002DD094B01221A80FA235B00181CFFF79C
:1002D0005FFF044B034A1168064A0A401A60BD4694
:1002E00080BDC046FC3F005000000010FFFEFFFF35
:1002F000FC3F0150FFFDFFFF80B500AF0E4B0E4AE3
:1003000012680E490A431A600D4B00221A600D4B09
:1003100001221A600C4B0C4A1268E02189000A4342
:100320001A600A4B094A1268902149000A431A6070
:1003300000F066F8BD4680BD8080044040000100AA
:1003400014400440104004400080005000800150E0
:1003500080B500AFFFF7D0FF184B181CFFF718FF50
:1003600000F036F8154B181CFFF712FFFFF71EFFC1
:10037000134B181CFFF70CFF124B124A1168124A5C
:100380000A401A600F4B0F4A126820210A431A6074
:100390000E4B181CFFF7FCFE0A4B0A4A126880211C
:1003A00049000A431A60074B064A126820218A4313
:1003B0001A60064B181CFFF7EBFEDDE7E093040024
:1003C00040420F00FC3F0150FFFEFFFFA0860100EE
:1003D00080B500AF064B064A1168064A0A401A600B
:1003E000054B054A1168054A0A401A60BD4680BDA2
:1003F000FC3F00507FFCFFFFFC3F0150DFFEFFFF92
:1004000080B500AF074B074A1268E02189000A4314
:100410001A60054B044A1268902149000A431A6089
:0C042000BD4680BDFC3F0050FC3F015079
:02042C000100CD
:00000001FF
