:1000000000100010F90000007101000071010000F3
:1000100000000000000000000000000000000000E0
:10002000000000000000000000000000710100005E
:10003000000000000000000071010000C901000084
:1000400071010000710100007101000071010000E8
:1000500071010000710100007101000071010000D8
:1000600071010000710100007101000071010000C8
:1000700071010000710100007101000071010000B8
:1000800071010000710100007101000071010000A8
:100090007101000071010000710100007101000098
:1000A0007101000071010000710100007101000088
:1000B0007101000071010000710100007101000078
:1000C00080B500AF094B03221A60094B30221A6039
:1000D000084B00221A60074B01221A60C046054BEC
:1000E0001A6801231340FAD0BD4680BDE080044069
:1000F000E8800440E480044080B584B000AF174B32
:10010000FB60174BBB60174A154BD31A7B6007E0A7
:10011000BB685A1CBA60FA68511CF96012781A70F0
:100120007B685A1E7A60002BF2D10F4BBB600F4ADE
:100130000D4BD31A7B6004E0BB685A1CBA600022E6
:100140001A707B685A1E7A60002BF5D1FFF7B8FF52
:1001500000F002F9BD4604B080BDC0463404000082
:100160000000001002000010020000100200001049
:1001700080B500AFFEE7C04680B582B000AF7860C2
:10018000C0467B685A1E7A60002BFAD1BD4602B089
:1001900080BDC04680B500AF074B074A12680721F3
:1001A0000A431A60054B064A1A60064B01221A6080
:1001B00062B6BD4680BDC04610E000E014E000E03D
:1001C000FFE0F50518E000E080B500AF424B1B886A
:1001D0001BB2022B22D002DC012B05D06AE0032BDC
:1001E00035D0042B4DD065E03C4B3C4A1268802151
:1001F00049000A431A60394B384A126880218A4301
:100200001A60374B364A1168364A0A401A60344B36
:10021000334A126820218A431A604BE02F4B2F4A41
:100220001168304A0A401A602C4B2C4A126880210F
:100230000A431A602A4B2A4A11682A4A0A401A605D
:10024000274B274A126820218A431A6032E0234B49
:10025000224A1168234A0A401A60204B1F4A12683A
:1002600080218A431A601E4B1D4A12688021490072
:100270000A431A601A4B1A4A126820218A431A60EC
:1002800018E0164B154A1168164A0A401A60134BBB
:10029000124A126880218A431A60114B104A116871
:1002A000104A0A401A600E4B0D4A126820210A4378
:1002B0001A60C046084B1B889BB201339AB2064BAA
:1002C0001A80054B1B881BB2042B02DD024B012256
:1002D0001A80BD4680BDC04600000010FC3F0050A3
:1002E000FC3F0150FFFEFFFF80B500AF134B134AE8
:1002F000126813490A431A60124B00221A60124B0B
:10030000114A1268C02149000A431A600F4B0F4A74
:100310001268902149000A431A600D4B0C4A12687A
:10032000C02149000A431A600A4B0A4A1268902108
:1003300049000A431A60BD4680BDC0468080044023
:100340004000010014400440008000500080015033
:10035000FC3F0050FC3F015080B500AFFFF7C4FFE9
:100360002F4B181CFFF708FF2D4B181CFFF704FF3D
:100370002B4B181CFFF700FF294B181CFFF7FCFE46
:10038000274B181CFFF7F8FE254B181CFFF7F4FE4F
:10039000234B181CFFF7F0FE214B181CFFF7ECFE57
:1003A000204B204A1168204A0A401A601F4B1F4AFE
:1003B00011681F4A0A401A60194B181CFFF7DCFE2F
:1003C000174B181CFFF7D8FE154B181CFFF7D4FE6F
:1003D000134B181CFFF7D0FE114B181CFFF7CCFE77
:1003E0000F4B181CFFF7C8FE0D4B181CFFF7C4FE7F
:1003F0000B4B181CFFF7C0FEFFF7CCFE084B181C78
:10040000FFF7BAFE064B181CFFF7B6FE044B181C8C
:10041000FFF7B2FE024B181CFFF7AEFEEEE7C04638
:1004200040420F00FC3F00507FFEFFFFFC3F0150A9
:04043000DFFEFFFFED
:020434000100C5
:00000001FF
