:10000000002000108901000071010000750100004E
:1000100000000000000000000000000091DBFFEF86
:100020000000000000000000000000007901000056
:1000300000000000000000007D01000081010000C0
:100040008501000085010000850100008501000098
:100050008501000085010000850100008501000088
:100060008501000085010000850100008501000078
:100070008501000085010000850100008501000068
:100080006104000079040000850100008501000082
:100090008501000085010000850100008501000048
:1000A0008501000085010000850100008501000038
:1000B0008501000085010000850100008501000028
:1000C000980500000000001004000000040000106B
:1000D0000800000070B500F081F8224B996F224BA8
:1000E000186800F01EFAFA21C90000F01AFA011C83
:1000F000002000F05DF900221C4B1A60002000F087
:1001000049F900200721012200F080F8174D2E1C2C
:100110002C1C2B68002B09D03268FA239B009A42D2
:1001200004D800200721002200F006F92268FA23F3
:100130009B009A420BD90D4B1A68FA23DB009A42B6
:1001400005D800200721012200F0F6F8E1E7074B6F
:100150001A68FA23DB009A42DBD90022034B1A60AB
:10016000D7E7C046008004400000001004000010E3
:10017000FEE7C046FEE7C046FEE7C046FEE7C046D3
:10018000FEE7C046FEE7C04608B50E4B0E4A0F49D3
:1001900003E010781870013301328B42F9D30C4B15
:1001A0000C49002201E01A7001338B42FBD300F0AE
:1001B0006FF9094B002B02D000E000BF01E0FFF710
:1001C00089FFFEE700000010980500000400001001
:1001D000040000100C00001000000000094A8023F9
:1001E000D05840210143D150074B802212061A609B
:1001F0008022D2051A60802292051A608022520560
:100200001A6070470080044000E100E001282AD015
:10021000002804D0022847D0032866D085E0802338
:100220001B02A020C005C35801208840011C1842B1
:1002300009D1012A07D1A022D20580231B02D05860
:100240000143D15071E080231B02A020C005C35898
:100250000B426AD0002A68D1021C80231B02C058BE
:100260008843D05061E080231B023048C3580120EE
:100270008840011C184208D1012A06D12B4A80234C
:100280001B02D0580143D1504FE080231B02274866
:10029000C3580B4249D0002A47D1021C80231B02BD
:1002A000C0588843D05040E080231B022048C358E8
:1002B00001208840011C184208D1012A06D11C4A9D
:1002C00080231B02D0580143D1502EE080231B0213
:1002D0001748C3580B4228D0002A26D1021C80237D
:1002E0001B02C0588843D0501FE080231B021148D6
:1002F000C35801208840011C184208D1012A06D1A8
:100300000C4A80231B02D0580143D1500DE08023BA
:100310001B020848C3580B4207D0002A05D1021C13
:1003200080231B02C0588843D05070470000015002
:100330000000025000000350012A24D801280ED0EA
:10034000002804D0022811D0032816D01BE08A40D0
:1003500004238B40191CA023DB05CA5013E08A40FC
:1003600004238B40191C084BCA500CE08A4004231C
:100370008B40191C054BCA5005E08A4004238B4072
:10038000191C034BCA507047000001500000025076
:1003900000000350002803D10122034B5A6002E001
:1003A0000122024B5A60704700C00040000001402B
:1003B00010B5002822D1254A8023D0581843D050A8
:1003C000234BDA6907208243DA61DC690222144395
:1003D000DC611C6E84431C661C6E14431C665C6EE0
:1003E00084435C66586E02435A661A4B9961032235
:1003F0005A6180225202184B1A6026E0012824D14B
:10040000124A8023D458802040002043D050104B03
:1004100058690722904358615C69012004435C617C
:100420009C6B94439C639C6B20439863D86E904371
:10043000D866D86E02220243DA66084B996103221D
:100440005A6180229202044B1A6010BD0080044061
:100450000040044000C0004000E100E00000014016
:100460000122034B1A60034B1A6801321A6070476D
:1004700000C00040040000100122034B1A60034B2F
:100480001A6801321A60704700000140080000102D
:10049000204B8E22920099582020814399500022AF
:1004A0001A62002301E0C0460133C72BFBD9194B68
:1004B00001221A645A64002159645A64191C4B6C55
:1004C0001A42FCD0134B23229A608E229200995834
:1004D000802081439950191C0122CB681A42FCD01C
:1004E0000C4B03221A6701225A67002159675A6789
:1004F000191C4B6F1A42FCD0064B01229A67064822
:100500008021585094215A5098215A509C215A5079
:100510007047C046008004405F00010003000B43A9
:1005200021D4002931D00122D207030901E00901B9
:1005300012099942FBD9430801E049005208994247
:10054000FBD900E04908401A07D35241FAD30146CB
:100550001046704749084018F7D29218FAD340184D
:10056000014610467047CB0F00D04942021000D51B
:100570004042534008B5FFF7D4FF0CBC521000D3E3
:100580004042002A00D549421847F446002000F0B6
:0C05900001F860477047FFFF006CDC02C0
:00000001FF
